S01300004F706472616368742042322E7372656348
S113000045C0000053C0000051C000004FC00000B4
S11300104DC000004BC0000049C0000047C00000B4
S113002045C0000044C0000041C000003FC00000C3
S11300303DC000003BC0000039C0000037C00000D4
S113004035C0000033C0000031C000002FC00000E4
S11300502DC000002BC0000029C0000027C00000F4
S113006025C0000023C0000021C000001FC0000004
S11300701DC000001BC0000019C0000017C0000014
S113008015C0000013C0000011C0000011241FBEE1
S1130090CFEFD0E1DEBFCDBF21E0A0E0B1E001C0F1
S11300A01D92A230B207E1F72DD038C0A9CF1F921C
S11300B00F920FB60F9211248F939F9382B380589F
S11300C082BB83B58F3061F480910001909101016E
S11300D00196909301018093000189E183BD0BC0D7
S11300E08091000190910101019790930101809307
S11300F000018FE083BD9F918F910F900FBE0F90F1
S11301001F9018958DE185BD14BC80E881BB87B72D
S1130110806887BF8FE083BD7894FFCFF894FFCFCA
S9030000FC
