S01200004F7064726163687420312E737265638C
S113000045C000004BC0000049C0000047C00000CC
S113001045C0000043C0000041C000003FC00000D4
S11300203DC000003BC0000039C0000037C00000E4
S113003035C0000033C0000031C000002FC00000F4
S11300402DC000002BC0000029C0000027C0000004
S113005025C0000023C0000021C000001FC0000014
S11300601DC000001BC0000019C0000017C0000024
S113007015C0000013C0000011C000000FC0000034
S11300800DC000000BC0000009C0000011241FBEF9
S1130090CFEFD0E1DEBFCDBF6BD08CC0B1CF20E0BD
S11300A030E008C0EFECF7E03197F1F700C0000052
S11300B02F5F3F4F28173907ACF308958FEF87BBA5
S11300C087B3877F87BB88B3816088BB82E58DB99E
S11300D008958FB9779BFECF089598B321E030E05F
S11300E002C0220F331F8A95E2F72095292328BBEB
S11300F0089598B321E030E002C0220F331F8A959F
S1130100E2F7292B28BB0895CF93DF93D82FC62F6E
S113011080E090E0E2DF8D2F90E0DBDF8C2F90E039
S1130120D8DF80E090E0E5DFDF91CF91089580E0B3
S1130130D4DF89E0CEDF8FEFCCDF80E0DADF80E050
S1130140CCDF8AE0C6DF8FE0C4DF80E0D2DF80E06E
S1130150C4DF8BE0BEDF83E0BCDF80E0CADF80E089
S1130160BCDF8CE0B6DF81E0B4DF80E0C2CF08956D
S1130170CF9381E087BBA2DFDADFC1E004C060E097
S11301808C2FC2DFCF5FC530D0F388EE93E087DFDA
S1130190C1E007C069E08C2FB7DF88EE93E07FDF12
S11301A0CF5FC530B8F388EE93E079DF81E090E06B
S10B01B0CF910895F894FFCFEC
S9030000FC
