S01300004F706472616368742042352E7372656345
S113000045C0000058C0000056C0000054C00000A5
S113001052C0000050C000004EC000004CC00000A0
S11300204AC0000048C0000046C0000044C00000B0
S113003042C0000040C000003EC000003CC00000C0
S11300403AC0000038C0000036C0000034C00000D0
S113005032C0000030C000002EC000002CC00000E0
S11300602AC0000028C0000026C0000024C00000F0
S113007022C0000020C000001EC000001CC0000000
S11300801AC0000018C0000016C0000011241FBED2
S1130090CFEFD0E1DEBFCDBF11E0A0E0B1E0E4EBF3
S11300A0F1E000E00BBF02C007900D92AE30B10743
S11300B0D9F770D07DC0A4CF20E030E008C0EFECC9
S11300C0F7E03197F1F700C000002F5F3F4F28178A
S11300D03907ACF3089585B3886085BB8FEC97E04E
S11300E00197F1F700C0000085B3877F85BB8FECD3
S11300F097E00197F1F700C000000895CF93C82F4F
S1130100807F85BBE8DF84E085BB20E1C29FC0011E
S1130110112485BBE0DF15BACF910895CF93C82F82
S1130120807F85BB85B3846085BBD5DF20E1C29F1A
S1130130C001112485BB85B3846085BBCCDFCF911E
S11301400895CF938FEF84BB15BAC0E2C5BBC3DF5C
S1130150C5BBC1DF80E885BBBEDF15BABCDF80EF5D
S113016085BBB9DF15BAB7DF80E685BBB4DF81E0B4
S1130170C5DFCF910895CF93DF93EC0102C0CEDFAA
S1130180219688818111FBCFDF91CF91089580580A
S1130190B5CF0895D6DF80E091E0EDDF88EE93E0FF
S11301A08BDF88E290E0F3DF87E091E0E4DFFFCFCC
S10701B0F894FFCFED
S11101B45468696A6D6500527562656E0000DC
S9030000FC
