S01200004F7064726163687420322E737265638B
S113000045C000004BC0000049C0000047C00000CC
S113001045C0000043C0000041C000003FC00000D4
S11300203DC000003BC0000039C0000037C00000E4
S113003035C0000033C0000031C000002FC00000F4
S11300402DC000002BC0000029C0000027C0000004
S113005025C0000023C0000021C000001FC0000014
S11300601DC000001BC0000019C0000017C0000024
S113007015C0000013C0000011C000000FC0000034
S11300800DC000000BC0000009C0000011241FBEF9
S1130090CFEFD0E1DEBFCDBFE1D019C1B1CF8FEF3B
S11300A087BB87B3877F87BB88B3816088BB82E5C2
S11300B08DB908958FB9779BFECF089598B321E049
S11300C030E002C0220F331F8A95E2F720952923DE
S11300D028BB089598B321E030E002C0220F331FFB
S11300E08A95E2F7292B28BB0895CF93DF93D82F65
S11300F0C62F80E090E0E2DF8D2F90E0DBDF8C2FD5
S113010090E0D8DF80E090E0E5DFDF91CF910895C3
S113011080E0D4DF89E0CEDF8FEFCCDF80E0DADF70
S113012080E0CCDF8AE0C6DF8FE0C4DF80E0D2DF8E
S113013080E0C4DF8BE0BEDF83E0BCDF80E0CADFA9
S113014080E0BCDF8CE0B6DF81E0B4DF80E0C2CFCA
S113015008950F931F93CF93DF93CDB7DEB72897FE
S11301600FB6F894DEBF0FBECDBF9C0121503109FC
S113017020313742A0F02EC06AE070E081D0F9014E
S1130180EE0FFF1F41E050E04C0F5D1FE40FF51F21
S1130190918380832F5F3F4F862F972F02C020E0EB
S11301A030E01816190644F301E010E00FC0F8011E
S11301B03197EE0FFF1F81E090E08C0F9D1FE80F39
S11301C0F91F6081802F91DF0F5F1F4F05301105EC
S11301D070F339C09C0129513C4F273E334098F5B8
S11301E091958195910920E030E012C06AE070E0B9
S11301F047D0F901EE0FFF1F41E050E04C0F5D1FA7
S1130200E40FF51F918380832F5F3F4F862F972F35
S1130210181619065CF36AE084E067DF01E010E079
S11302200FC0F8013197EE0FFF1F81E090E08C0FB3
S11302309D1FE80FF91F6081802F57DF0F5F1F4F4D
S11302400430110570F328960FB6F894DEBF0FBE84
S1130250CDBFDF91CF911F910F91089581E087BBAE
S11302601EDF56DFC1E0D0E004C060E08C2F3DDF2C
S11302702196C530D105CCF38CEA9CEF6ADFFFCF21
S113028097FB072E16F4009406D077FD08D00BD008
S113029007FC05D03EF4909581959F4F0895709585
S11302A061957F4F0895AA1BBB1B51E107C0AA1F8C
S11302B0BB1FA617B70710F0A61BB70B881F991F03
S11302C05A95A9F780959095BC01CD010895F894AD
S10502D0FFCF5A
S9030000FC
