S01300004F706472616368742042322E7372656348
S113000045C0000053C0000061C00000A3C0000050
S11300104DC000004BC0000049C0000047C00000B4
S113002045C0000043C0000041C000003FC00000C4
S11300303DC000003BC0000039C0000037C00000D4
S113004035C0000033C0000031C000002FC00000E4
S11300502DC000002BC0000029C0000027C00000F4
S113006025C0000023C0000021C000001FC0000004
S11300701DC000001BC0000019C0000017C0000014
S113008015C0000013C0000011C0000011241FBEE1
S1130090CFEFD0E1DEBFCDBF21E0A0E0B1E001C0F1
S11300A01D92A230B207E1F79BD0A8C0A9CF20E0EF
S11300B030E008C0EFECF7E03197F1F700C0000042
S11300C02F5F3F4F28173907ACF308951F920F9203
S11300D00FB60F9211240BB60F922F933F934F93A9
S11300E05F936F937F938F939F93AF93BF93EF939C
S11300F0FF938091000190910101873091052CF0CC
S1130100109201011092000105C001969093010123
S11301108093000181E090E00090000102C0880F0C
S1130120991F0A94E2F783B986E990E0C0DFFF9152
S1130130EF91BF91AF919F918F917F916F915F915B
S11301404F913F912F910F900BBE0F900FBE0F90C8
S11301501F9018951F920F920FB60F9211240BB691
S11301600F922F933F934F935F936F937F938F934C
S11301709F93AF93BF93EF93FF938091000190916E
S11301800101181619063CF087E090E090930101F4
S11301908093000105C001979093010180930001B1
S11301A081E090E00090000102C0880F991F0A943A
S11301B0E2F783B986E990E07ADFFF91EF91BF918E
S11301C0AF919F918F917F916F915F914F913F91EB
S11301D02F910F900BBE0F900FBE0F901F9018958C
S11301E080EF81BB8FEF82B9EAE6F0E080818C6218
S11301F0808389B7866089BF7894FFCFF894FFCF56
S9030000FC
